:020000040800F2
:1020000028BE00203D220008AD880008DD7D0008C4
:102010006B8800086938000899E400080000000097
:10202000000000000000000000000000A1AE000859
:10203000C1490008000000001D8A000855D50008AD
:1020400057220008218900085722000839AB0008F0
:10205000572200085722000857220008572200087C
:10206000572200085722000857220008F5450008AB
:10207000572200085722000857220008572200085C
:10208000572200085722000857220008572200084C
:1020900097E3000857220008572200080D4B00085C
:1020A000572200085722000857220008572200082C
:1020B000572200085722000857220008572200081C
:1020C000572200085722000857220008572200080C
:1020D0005722000829E0000875E00008C1E0000868
:1020E0009D4A0008A9AA00085722000857220008A4
:1020F00057220008572200085722000857220008DC
:1021000057220008572200085722000857220008CB
:10211000CDDF000857220008572200085722000888
:1021200057220008572200085722000857220008AB
:1021300000F002F800F073F80AA090E8000C824466
:102140008344AAF10107DA4501D100F068F8AFF243
:10215000090EBAE80F0013F0010F18BFFB1A43F085
:1021600001031847D4CA0000F4CA00000A444FF023
:10217000000C10F8013B13F0070408BF10F8014BE6
:102180001D1108BF10F8015B641E05D010F8016B2B
:10219000641E01F8016BF9D113F0080F1EBF10F88F
:1021A000014BAD1C0C1B09D16D1E58BF01F801CBB2
:1021B000FAD505E014F8016B01F8016B6D1EF9D535
:1021C0009142D6D37047000000230024002500264A
:1021D000103A28BF78C1FBD8520728BF30C148BF8A
:1021E0000B60704703681B0A28BF41F08001642917
:1021F00000F0AA80752900F0A780782900F01E81E0
:10220000F52900F0DD80632900F02384732900F0B4
:102210002884002070471FB51FBD10B510BD00F009
:10222000A8FC1146FFF7F7FF0CF000FB00F0C6FC1E
:1022300003B4FFF7F2FF03BC00F0CAFC0948804773
:1022400009480047FEE7FEE7FEE7FEE7FEE7FEE798
:10225000FEE7FEE7FEE7FEE704480549054A064BB0
:10226000704700005DD7000831210008282E0020AB
:1022700028BE0020283E0020283E00200FB41CB5B8
:10228000084B06AA7B4469460090059800F0BFFB06
:1022900004460020694600F0CDFB20461CBC5DF8DA
:1022A00014FB0000AD07000070B5044685690068A6
:1022B000C10601D5302600E02026C00707D070BD3A
:1022C000D4E9012130469047206A401C20626D1EEF
:1022D000F6D570BD70B5044685690078C00707D192
:1022E00070BDD4E9012120209047206A401C206263
:1022F0006D1EF6D570BD70B50C460546012A05D099
:102300002878800600D5EA69002302E0012305E071
:102310005B1C934202D2E05C0028F9D1A869E61860
:10232000C01AA861286A184428622846FFF7BCFF33
:1023300004E0D5E9012114F8010B9047B442F8D329
:102340002846FFF7C7FF70BD2DE9F041064600247F
:1023500010687529314616A510D0AFF3008000280B
:1023600002DA404213A507E031688A0701D512A5B9
:1023700002E0490704D511A5012401E0AFF3008074
:1023800000210A2206F1240709E0B0FBF2FCB0FBB1
:10239000F2F302FB1C00303078541846491C002828
:1023A000F3D123462A463046BDE8F04100F0D0BACA
:1023B000000000002D0000002B00000020000000A5
:1023C0002DE9F0418046D21D22F007020025D2E916
:1023D0000002F52915A614D0011E72F1000106DADB
:1023E0000023D0EB030063EB020211A608E0D8F84B
:1023F00000108B0701D50FA602E0490701D50EA6F4
:1024000001251146002408F1240704E000F05BFADE
:1024100030323A55641C50EA0102F7D12B4632465D
:1024200021464046BDE8F04100F092BA00000000AD
:102430002D0000002B0000002000000070B50446B5
:102440000D4621461068AFF300802188090502D5AA
:102450000F4A7A4402E00E4A7A440E32002104F117
:10246000240305E000F00F060009965D5E54491C48
:102470000028F7D120780023000704D5702D02D062
:1024800009B1022311322046BDE8704000F060BA65
:102490009AC700002DE9F05F894604464FF0000A14
:1024A000DFF874B1FB44C0F820A02046E1688847FB
:1024B000002874D0252806D0D4E901219047206A4D
:1024C000401C2062F1E700265F462046E16888470D
:1024D0002028054607DB312D05D2781910F8200C8D
:1024E00008B10643F1E7B00701D526F00406C4F8A9
:1024F0001CA00027C4F818A02A2D09D028460CF0EB
:102500008EF938B304EB8708303DC8F8185019E04D
:1025100059F8041B204604EB87029161E168884763
:10252000012F054618D1E069002820DA26F02006A0
:102530001DE0D8F8180000EB800005EB40003038B3
:10254000C8F818002046E168884705460CF067F98E
:102550000028EED1012F0AD02E2D08D12046E168A7
:1025600088477F1C0546022F46F02006C4DBA06981
:10257000002803DA404246F00106A061F00701D0CE
:1025800026F010066C2D0BD0682D09D04C2D39D0BB
:102590006A2D35D0742D35D07A2D33D016E038E041
:1025A000E1682F4620468847B842054609D16C2F7E
:1025B00026D04FF48060E1680643204688470546F0
:1025C00004E06C2F1AD04FF4807006430DB3A5F1D0
:1025D0004100192802D8203546F400664A462946AB
:1025E000204626604E46FFF7FDFD80B101280BD046
:1025F000F61D26F0070000F1080956E74020E4E741
:102600008020D8E70020D6E706F104094DE72846E8
:1026100052E7206ABDE8F09F70C70000032A40F22D
:10262000308010F0030C00F0158011F8013BBCF174
:10263000020F624498BF11F801CB00F8013B38BF8C
:1026400011F8013BA2F1040298BF00F801CB38BF9A
:1026500000F8013B11F0030300F02580083AC0F0B8
:10266000088051F8043B083A51F804CBA0E8081060
:10267000F5E7121D5CBF51F8043B40F8043BAFF393
:102680000080D20724BF11F8013B11F801CB48BFED
:1026900011F8012B24BF00F8013B00F801CB48BF23
:1026A00000F8012B704710B5203AC0F00B80B1E85C
:1026B0001850203AA0E81850B1E81850A0E8185077
:1026C000BFF4F5AF5FEA027C24BFB1E81850A0E880
:1026D000185044BF18C918C0BDE810405FEA827C9A
:1026E00024BF51F8043B40F8043B08BF7047D207B1
:1026F00028BF31F8023B48BF11F8012B28BF20F852
:10270000023B48BF00F8012B70470000014900F070
:10271000ADB900009C2D002010B503681C1404EB1B
:1027200021449BB289B2194494FBF2F302FB134398
:1027300094FBF2F401EB034393FBF2F102FB113142
:1027400093FBF2F301E05B1E11440029FBDB016007
:1027500003EB044010BD2DE9F04704464FF0FF3A6B
:1027600086B00068029060680390A0680490E068FA
:10277000019020690090656905F18040B0F1004F3B
:102780007DD83C22002102A8FFF7C6FF3C2201466B
:1027900003A8FFF7C1FF1822014604A8FFF7BCFFFA
:1027A000411E40F2B55201A8FFF7B6FF0C220646C3
:1027B00068460021FFF7B0FF00EB860028443E4D3D
:1027C00000267D440FE09A1A491CCDE90012022927
:1027D00002D00C2907D104E0810704D0521C0192D9
:1027E00001E0401C00960099019B6A5C9A42EADD78
:1027F000012906D11C2B04D1810702D00221CDE989
:102800000016A0F146018B2940D20199009B0022BD
:102810000F4602E0AE5C521C31449A42FADB012BB7
:1028200002DD820700D0491E40F2B55540F26D1618
:10283000C21700EB927292106A4300F0030505FB89
:10284000062285070A4400D1521E049D02EB42066F
:10285000DDF80C80A94605EBC605184EC5EB05153D
:10286000DDF808C008EB850535442E14ADB2C6EB83
:102870000616C5EB0515B6000CEB850500E005E076
:1028800006EB154666F31F45360C03D0504606B0DE
:10289000BDE8F087C4E904307F1C0720521CC4E95E
:1028A000029792FBF0F3E4E806C800FB132084E8EB
:1028B00003042846EBE7000063C40000A039CEFD06
:1028C00070477047704730B5B0F10A024FEA900E7A
:1028D00071F100034EEA817EB0EB0E0061EB9101D5
:1028E0004FEA101E4EEA017E10EB0E0041EB111173
:1028F0004FEA102E4EEA016E10EB0E0041EB112153
:102900004FEA104E4EEA014E10EB0E0041EB114122
:10291000401841F100014FEAD00040EA41704FEA0F
:10292000D10110EB80054FEA810444EA907444EB36
:1029300001046D1944EB0404521BA3414FF0000342
:1029400048BF0A3200D530BD401C41F1000130BD06
:102950002DE9F0470D4699469246044600F12408B9
:102960000168880604D5E06921F01001216000E0CB
:102970000120A84201DD471B00E00027A1697A1968
:1029800002EB0900081AA0612078C00602D4204694
:10299000FFF78AFC002608E0D4E901211AF80600B6
:1029A0009047206A401C761C20624E45F4DB20785C
:1029B000C0060AD52046FFF777FC06E0D4E90121DE
:1029C00030209047206A401C2062381EA7F1010782
:1029D000F4DC07E0D4E9012118F805009047206AEB
:1029E000401C2062281EA5F10105F3DC2046FFF7FC
:1029F00071FC2078000602D50220BDE8F087012096
:102A0000FBE7000001694A1C02610878704700B5C5
:102A10008FB0CDE901310021059105497944CDE917
:102A2000031011466846FFF735FD0FB000BD0000EA
:102A3000E5FFFFFF0A6802F8010B0A60704710B556
:102A4000436913B1AFF3008001E0FFF754FC0120AC
:102A500010BD127800F124010A7000224A70012290
:102A6000EDE711684FF0FF32E9E7000070B50C4662
:102A7000016800204A1C3ED03C22B1FBF2F302FB6D
:102A80001313B1FBF2F12360B1FBF2F302FB13135A
:102A9000B1FBF2F118226360B1FBF2F302FB1313F6
:102AA000B1FBF2F146F2E0320A440721A360B2FB27
:102AB000F1F301FB132140F2B553B2FBF3F5A16131
:102AC000B2FBF3F103FB15228900B2F5B77F08D3FF
:102AD0009B10521EB2FBF3F52944B2FBF3F503FB46
:102AE00015220F4BE261616189077B440CD03B2AC0
:102AF0000AD3521C08E02C21204600F013F80120D4
:102B0000E0600AE0521A401C195C9142FAD9521C4A
:102B1000C4E903204FF0FF302062204670BD000062
:102B20003BC100004FF0000200B5134694469646A4
:102B3000203922BFA0E80C50A0E80C50B1F12001D0
:102B4000BFF4F7AF090728BFA0E80C5048BF0CC07E
:102B50005DF804EB890028BF40F8042B08BF7047DC
:102B600048BF20F8022B11F0804F18BF00F8012B4E
:102B70007047754600F028F8AE4605006946534692
:102B800020F00700854618B020B5FFF765FBBDE8CB
:102B900020404FF000064FF000074FF000084FF0C4
:102BA000000B21F00701AC46ACE8C009ACE8C00955
:102BB000ACE8C009ACE8C0098D4670470446AFF3E5
:102BC00000802046FFF734FB00487047C82D0020E6
:102BD00001491820ABBEFEE726000200704721B174
:102BE000826842F00102826003E0826822F0010202
:102BF0008260704721B1826842F48072826003E093
:102C0000826822F4807282607047014600208A68E0
:102C100002F004020AB1012000E0002070470146E2
:102C200000208A6802F008020AB1012000E00020BA
:102C30007047000030B502460020002350680F4C5A
:102C400020400D790C6844EA0524204350609068C8
:102C50000B4C2040D1E902542C434D7944EA450401
:102C600020439060D06A20F470000C7C641EE4B2B3
:102C7000234340EA0350D06230BD0000FFFEF0FF66
:102C8000FDF7F1FFF0B504460D4600200021092DA7
:102C900011DDE068A5F10A0606EB4607072606FAED
:102CA00007F18843A5F10A0606EB460603FA06F18A
:102CB0000843E0600CE0206905EB4507072606FAAB
:102CC00007F1884305EB450603FA06F10843206146
:102CD000072A0FDA606B561E06EB86071F2606FAD8
:102CE00007F18843561E06EB860605FA06F10843EF
:102CF000606322E00D2A0FDA206BD61F06EB8607F1
:102D00001F2606FA07F18843D61F06EB860605FA4A
:102D100006F10843206310E0E06AA2F10D0606EB1D
:102D200086071F2606FA07F18843A2F10D0606EB77
:102D3000860605FA06F10843E062F0BD816841F0BD
:102D400008018160704721B1826842F4A00282606C
:102D500003E0826822F4A00282607047816841F03B
:102D600004018160704700002DE9F04105460F46DF
:102D70004FF40071674803F07CF800284DD1664895
:102D80000068401C64490860084640682844486060
:102D90000221624803F078F85F48C06800F00060E4
:102DA000F0B95D48406805281AD300205C49487690
:102DB000594988600846C06840F00060C86000203B
:102DC00007F0F4F90121384600F0BCF8002155A0C5
:102DD0000AF0B9F880460122414652A005F020FCD5
:102DE0005348B0F8DE0018B978205149A1F8DE0048
:102DF000494840684E49B1F8DE1088420CD3464835
:102E000040684B49B1F8DE10B0FBF1F201FB120053
:102E10004149486007F034FB79E03F488068284426
:102E20003D49886002213D4803F02CF83A48C068CB
:102E300000F00060E0B138488068052818D3002011
:102E4000354948600846C06820F00060C86001202D
:102E500007F0ACF90021384600F074F8002135A0E5
:102E60000AF071F880460122414632A005F0D8FBF5
:102E70002948808900F4007060B1274880682C4997
:102E8000B1F8DE10884205D300202349886007F09E
:102E9000F7FA3CE0204881682548B0F8E00078382F
:102EA00081420FD31C4880682149B1F8E010884264
:102EB0002DD300201849886007F0E2FA0120184954
:102EC000487624E01648407E08B1B42602E018484F
:102ED000B0F8DC6010488068B04218D3002405E0E8
:102EE0001748005D00B103E0601C84B2042CF7DBDE
:102EF00000BF042C05D008488068801E0649886001
:102F000005E000200649487688760120C875BDE8AE
:102F1000F081000000140140E0160020000C014088
:102F200010170020414343206F6E0D0A000000007F
:102F3000F0150020414343206F66660D0A00000033
:102F4000A825002070B506460D462DB3364890F8EA
:102F500046003C2816DB344890F84600801EC1B27B
:102F6000314880F8461090F8421090F8410001EB8B
:102F7000002084B2A01F84B221122B4880F8411097
:102F800080F84240284991F8460000EBD071491082
:102F9000A0EB410151B146E0234991F8460000EB16
:102FA000D0714910A0EB410101B93CE01E4890F8F6
:102FB000421090F8410001EB002084B2B82C00DDF3
:102FC00031E01949403108190322314605F042FC2D
:102FD000E01C84B22112144880F8411080F842406D
:102FE00090F84600401CC1B20F4880F846102046B9
:102FF00000F066F8B5B90C4991F8460000EBD071C5
:103000004910094A82F84610E01EC1B202F143009D
:1030100007F0DEFA044890F846004006010E024828
:1030200080F8461000BF70BD4017002070B50546FF
:1030300000242A222146641C0C48425400222146C6
:10304000641C425407222146641C42540322294630
:10305000C01C05F0FFFBE41C00222146641C034851
:103060004254204600F02CF870BD0000801700206C
:1030700070B50646114890F840002A2800D017E0A5
:103080000E4890F8421090F8410001EB002084B205
:10309000BB2C00DD0CE02146084840300AF07CFFE4
:1030A000054606484030005DA84200D170BD00BF13
:1030B0003046FFF7BBFF00BFF8E7000040170020D5
:1030C0002DE9F041044621460D480AF065FF0C4900
:1030D0000855601C84B2402606F5E670224609F0C9
:1030E000F3FE05464DB9002106A009F02CFF074666
:1030F0000122394603A005F093FABDE8F0810000F3
:1031000080170020616363206F6E2F6F66662073E7
:10311000746174697374696320646174612073619C
:103120007665206661696C2E0D0A000000B587B0D7
:103130000121480207F086FB0F20ADF804000020B3
:103140008DF8070001A9254802F008FE0020029032
:1031500001208DF80C0000208DF80D004FF4602048
:1031600004900020059004208DF8180002A91C4846
:10317000FFF760FD072301220A211948FFF782FDAE
:10318000072302220B211648FFF77CFD07230322A9
:103190000C211348FFF776FD072304220D21104868
:1031A000FFF770FD01210E48FFF724FD01210C48B7
:1031B000FFF715FD0A48FFF7C1FD00BF0848FFF7FC
:1031C0002EFD0028FAD10648FFF7C8FD00BF0448CD
:1031D000FFF71BFD0028FAD107B000BD0010014029
:1031E000002401402DE9F04105460E4617464FEAFE
:1031F0006608002409E06200521CA95C15F814005E
:1032000000F008F83855601C84B24445F3DB4046B2
:10321000BDE8F0810246302A05DB392A03DCA2F141
:103220003003D8B20EE0412A05DB462A03DCA2F1C6
:103230003703D8B206E0612A04DB662A02DCA2F179
:103240005703D8B20307180E302906DB392904DCEE
:10325000A1F130030343D8B210E0412906DB46292F
:1032600004DCA1F137030343D8B207E0612905DB91
:10327000662903DCA1F157030343D8B2704700006D
:1032800010B51AB10124034B1C7502E00224014B56
:103290001C7510BD901B002010B51AB10124034B02
:1032A000DC7602E00224014BDC7610BD901B00208E
:1032B00010B51AB10124034B9C7402E00224014BA7
:1032C0009C7410BD901B002010B51AB10124034B53
:1032D0005C7402E00224014B5C7410BD901B002062
:1032E0002DE9FE4304460E4617460FA207CA8DE895
:1032F000070002210F4801749FB10021684609F0C0
:1033000022FE8046334622464146684609F02BFE9F
:10331000C5B2002D05DD605D312802D101210548CF
:103320000174BDE8FE8300002B43474154543A200A
:1033300000000000901B002010B51AB10124034BBF
:10334000DC7402E00224014BDC7410BD901B0020F1
:103350002DE9FF4705460F46904646A30FCB8DE863
:103360000F00022147484172B8F1000F66D00020DB
:10337000454981F829000021444809F0E4FD8146CF
:103380003B462A464946414809F0EDFDC4B2002CAF
:103390006BDD28190F2104F052FE0646002E64D082
:1033A0003B4890F8B700FF2815D129190F2238485B
:1033B000B73005F04FFA09F0D9FF0646002E39D193
:1033C000002134A009F0BFFD81460122494631A009
:1033D00005F026F92EE029190F222D48B73005F007
:1033E00027FA064676B12848C06800F4002008B3E2
:1033F0002548C06820F400202349C8608D2006F0CD
:1034000006FF17E0002127A009F09DFD814601225B
:10341000494624A005F004F91B48C06800F40020C8
:1034200040B91948C06840F400201749C8600D2011
:1034300006F0EDFE01211348417216E000216846B6
:1034400009F081FD81463B462A464946684609F017
:103450008AFDC4B2002C04DD01200B4981F829004B
:1034600003E00020084981F829000AF06BF9BDE863
:10347000FF870000434D45204552524F523A2031BC
:1034800030000000901B0020E016002029010020E1
:10349000F0150020494D5349207365742066616919
:1034A0006C0D0A0073696D63617264206368616EFC
:1034B0006765640D0A00000010B51AB10124034BC2
:1034C0005C7502E00224014B5C7510BD901B00206E
:1034D00010B51AB10124034B9C7602E00224014B83
:1034E0009C7610BD901B002010B51AB10124034B2F
:1034F000DC7502E00224014BDC7510BD901B00203E
:103500002DE9FC4105460E4617460EA103C9CDE93B
:103510000001AFB101210D4801760021684609F094
:1035200012FD804633462A464146684609F01BFD97
:10353000C4B2002C04DD321B91B2281909F050F9F5
:10354000BDE8FC81434D474C3A200000901B002011
:1035500010B51AB10124034B5C7602E00224014B42
:103560005C7610BD901B00202DE9F04385B0054628
:103570000F46904623A103C9CDE9030123A00068AB
:10358000029002212248C173B8F1000F36D0002109
:1035900003A809F0D8FC81463B462A46494603A8C1
:1035A00009F0E1FCC4B2002C28DD002102A809F0DA
:1035B000CAFC81463B462A46494602A809F0D3FC8C
:1035C000C4B2002C1ADD28190B2104F038FD064680
:1035D000A6B12819694608F0BFF8052269460D48CA
:1035E00005F026F9064636B905226946094805F070
:1035F00031F909F0BBFE01210548C17305B0BDE8F2
:10360000F08300002B434E554D3A00002C22000061
:10361000901B0020A216002010B51AB10124034B04
:103620009C7202E00224014B9C7210BD901B002092
:1036300010B51AB10124034BDC7202E00224014BE5
:10364000DC7210BD901B00202DE9FC4104460E46A3
:10365000174611A103C9CDE9000102211048817369
:10366000C7B10021684609F06EFC80463346224609
:103670004146684609F077FCC5B2002D0ADDA81C5A
:10368000205C312803D0A81C205C352802D1012100
:1036900003488173BDE8FC812B435245473A200023
:1036A000901B00202DE9FC4704468846914621A145
:1036B00003C9CDE90001022120484173B9F1000F8F
:1036C00035D00021684609F03EFC8246434622463A
:1036D0005146684609F047FCC5B2002D27DD00279A
:1036E000681C205C2C2809D16019012104F0A7FC7A
:1036F000A8B1605D3038C6B2012710E06019022120
:1037000004F09DFC58B1605DA0F1300606EB860028
:103710004600681C205C30383044C6B201271FB117
:103720001F2E01DC06480674012104484173BDE8E0
:10373000FC8700002B4353513A200000901B0020CF
:103740001017002010B51AB10124034BDC7102E000
:103750000224014BDC7110BD901B002010B51AB182
:103760000123034CA37102E00223014CA37110BD9D
:10377000901B002010B51AB10124034B9C7502E088
:103780000224014B9C7510BD901B00202DE9FC47C5
:1037900004460F46904614A103C9CDE90001022159
:1037A00013480173B8F1000F1BD00021684609F0DF
:1037B000CAFB81463B4622464946684609F0D3FB90
:1037C000C5B2002D0DDD60190F2104F038FC06464E
:1037D0003EB161190F22074805F03CF80121044869
:1037E0000173BDE8FC870000494D45493A200000BF
:1037F000901B0020B616002010B51AB10124034B0F
:103800001C7202E00224014B1C7210BD901B0020B0
:1038100010B51AB10124034B9C7702E00224014B3E
:103820009C7710BD901B002010B51AB10124034BEA
:103830001C7702E00224014B1C7710BD901B002076
:1038400010B51AB10124034B5C7702E00224014B4E
:103850005C7710BD901B002010B5012007F012F816
:10386000002007F00FF810BD00BFFEE710B50446BA
:103870000B48844209D10121480606F0D3FF0021FC
:103880004FF0007006F0CEFF08E00121880606F038
:10389000C9FF00214FF0806006F0C4FF10BD00009A
:1038A0000064004010B50021837A012202FA03F17E
:1038B0003D4A126842F001023B4B1A603A4A1C3200
:1038C00012688A43384B1C331A60027BCAB9364AE5
:1038D0000C3212688A43344B0C331A604288C38816
:1038E00042EA0343304A4032847A42F83430028854
:1038F000838842EA03432C4A4032847A02EBC402B2
:103900005360027B012A19D1274A0C3212680A43FC
:10391000254B0C331A604288038842EA0343224A4B
:103920004032847A42F83430C288838842EA0343C2
:103930001D4A4032847A02EBC4025360C27A3AB91B
:10394000194A121D12688A43174B1B1D1A6006E0A4
:10395000154A121D12680A43134B1B1D1A60028977
:1039600032B9114A143212688A430F4B14331A6069
:103970000289012A06D10C4A143212680A430A4B02
:1039800014331A60427B012A06D1074A1C3212689E
:103990000A43054B1C331A60034A126822F00102E5
:1039A000014B1A6010BD0000006600401AB1436967
:1039B0000B43436102E043698B434361704730B579
:1039C000024600200023146824F0020414601468E6
:1039D00044F00104146000E05B1C546804F001042E
:1039E0001CB94FF6FF74A342F6D1546804F00104E9
:1039F0000CB900206CE08C79012C04D1146844F0DF
:103A00008004146003E0146824F080041460CC790E
:103A1000012C04D1146844F04004146003E01468DD
:103A200024F0400414600C7A012C04D1146844F092
:103A30002004146003E0146824F0200414604C7A1D
:103A4000012C04D1146844F01004146003E01468DD
:103A500024F0100414608C7A012C04D1146844F012
:103A60000804146003E0146824F008041460CC7A9D
:103A7000012C04D1146844F00404146003E01468B9
:103A800024F0040414608C78A407CD7844EA05641B
:103A90000D7944EA05444D7944EA05540D886D1EBC
:103AA0002C43D461146824F001041460002300E066
:103AB0005B1C546804F001041CB14FF6FF74A34270
:103AC000F6D1546804F001040CB1002000E001209C
:103AD00030BD10B500F5D87303EB01131B6803F07C
:103AE00004031372137A53B900F5D87303EB01136F
:103AF0001B6840F2FF7404EA5353136009E000F5B9
:103B0000D87303EB01131B686FF0604404EAD3031E
:103B1000536000F5D87303EB01131B6803F0020335
:103B2000537200F5D87303EB01135B6803F00F03C6
:103B3000937200F5D87303EB01135B681B0AD3740F
:103B400000F5D87303EB01139B68D37200F5D873AB
:103B500003EB01139B681C0A147300F5D87303EB85
:103B600001139B681C0C547300F5D87303EB01130D
:103B70009B681B0E937300F5D87303EB0113DB688E
:103B8000D37300F5D87303EB0113DB681C0A1474BC
:103B900000F5D87303EB0113DB681C0C547400F5BB
:103BA000D87303EB0113DB681B0E937421B9C36850
:103BB00043F02003C36003E0036943F02003036183
:103BC00010BD00218171C171017241728172C17297
:103BD0008170C170032101710221417101210180B5
:103BE000704710B502460020936803F08063B3F17C
:103BF000806F00D110E0936803F00063B3F1006FB1
:103C000001D1012008E0936803F08053B3F1805F95
:103C100001D1022000E00420042874D002F5C07312
:103C200003EB00131B6803F0010402F5C07303EB00
:103C300000131C600B7A7BB94B7A0C8843EA44531F
:103C400002F5C07404EB00142468234302F5C07429
:103C500004EB0014236010E00B7A4C6843EAC403C1
:103C60004C7A234302F5C07404EB00142468234308
:103C700002F5C07404EB001423608B7A03F00F0389
:103C80008B7202F5C07303EB00135B6823F00F0423
:103C900002F5C07303EB00135C6002F5C07303EB25
:103CA00000135B688C7A234302F5C07404EB0014A4
:103CB00063608B7B1C064B7B44EA03440B7B44EA2A
:103CC0000323CC7A234302F5C07404EB0014A360F1
:103CD0008B7C1C064B7C44EA03440B7C44EA0323A4
:103CE000CC7B234302F5C07404EB0014E36002F5BF
:103CF000C07303EB00131B6843F0010402F5C073AB
:103D000003EB00131C6010BD10B50B21024806F038
:103D1000A1FF00F019F810BD8F2D002010B50C2266
:103D2000084940F2D34009F01BF80B2105480AF07E
:103D300033F904460348C07AA04201D0FFF7E4FFFC
:103D400010BD00008F2D002010B50B2106480AF091
:103D500023F90549C8720C2240F2D34009F0B4F8A7
:103D60000446204610BD00008F2D002008B500221B
:103D700002210B48FFF71AFE0948FFF777FD0121E2
:103D8000480606F03FFD4FF4C050ADF8000000209B
:103D90008DF803006946034801F0E0FF08BD00000C
:103DA00000640040000801402DE9FF4107460D4630
:103DB00016468DF80A7001208DF80B008DF80C0066
:103DC0002C46E40044F00404200CADF80000A0B23E
:103DD000ADF802003446E40044F00404200CADF8D1
:103DE0000400A0B2ADF806000020ADF808000120E4
:103DF0008DF80D006846FFF755FDBDE8FF81000016
:103E000000B58BB04FF40060ADF8280048208DF865
:103E10002B000AA93E4801F0A1FF4FF48050ADF8F5
:103E2000280003208DF82A0018208DF82B000AA9FD
:103E3000374801F093FF0121480606F0E3FC02A891
:103E400006F026FD3348FFF711FD07A8FFF7B9FE7E
:103E500000208DF8220001208DF8230000208DF82D
:103E600024008DF825008DF826008DF827008DF8A8
:103E70001E008DF81F000C208DF8200001208DF809
:103E8000210025490498B0FBF1F080B2ADF81C0088
:103E900007A92048FFF793FD08B90BB000BD1F4AE2
:103EA0001F490020FFF780FF1E4A1F490120FFF72E
:103EB0007BFF1E4A1E490220FFF776FF1D4A1E495E
:103EC0000320FFF771FF1D4A1D490420FFF76CFF17
:103ED0001C4A1D490520FFF767FF00221B490620E9
:103EE000FFF762FF012202210A48FFF75FFD14205D
:103EF0008DF8040007208DF8060001208DF80700DA
:103F000001A804F0D5FCFFF709FF00BFC5E70000DA
:103F1000000801400064004000093D000004F00C6E
:103F20000003F00C00E5FE1800EFFE1800F6FE1886
:103F300000EEFE1800CAFE1800E9FE180005FF1882
:103F400000F2FE18031FFF18031EFF180330FF0CBA
:103F500010B54FF40071154801F08BFF70B914488B
:103F6000007840B90120124908702021114801F061
:103F70008BFFFFF745FF00F0EBF815E00E48C06837
:103F800000F0006080B90A48007868B10020084954
:103F90000870FFF7EBFE2021064801F073FFA8210F
:103FA0000348C01C06F056FE10BD0000001401407E
:103FB000CF2C0020000C0140E016002070B5044614
:103FC0004FF40071454801F054FF28B14448C068DF
:103FD00000F0006000287DD000F0BAF94148407838
:103FE00000281ED000203F4948703F4908803C48C7
:103FF000C06800F4803000283FD03948C06820F401
:1040000080303749C860852006F001F9002137A0CB
:1040100008F099FF05460122294634A004F000FB70
:104020002BE03148008820442F4908803748B0F8F9
:10403000DA000988884220DC2948C06800F4803012
:1040400090B92748C06840F480302549C8600520F1
:1040500006F0DDF800212EA008F075FF05460122CC
:1040600029462BA004F0DCFA1F480088B0F5967FA3
:1040700003DB4FF496701C4908802C4800782044DC
:104080002A490870184800883C2826DB0846007832
:104090003C2822DB14480088B0F5967F1DDA002109
:1040A00023A008F050FF05460122294620A004F075
:1040B000B7FA00201D4908702021244801F0E2FED3
:1040C000FFF754FE022009F047F8FFF799FE202180
:1040D0001E4800E001E001F0D7FE70BD0014014071
:1040E000E0160020CF2C0020800200206D65746552
:1040F0007220627265616B20646F776E20616C6103
:10410000726D2063616E63656C0D0A00F01500200E
:104110006D6574657220627265616B20646F776E85
:1041200020616C61726D0D0A000000007E020020AB
:104130006D65746572206E6F2072782064617461A1
:1041400020726573746172740D0A0000000C0140E6
:1041500010B50648807838B10020044988700C21D9
:1041600002486F3006F079F810BD0000CF2C002017
:1041700010B586B0002401AA00216C48FFF7A9FC05
:104180009DF80E0008285CD1694A0299881A91426C
:1041900039D017DC674AA1EB020091423CD00ADC1F
:1041A0006548084420B3B0F5807F23D063490844B4
:1041B000002843D13FE0B0F5D85F21D0B0F5F85FDB
:1041C0003CD126E0B0F5B85F2CD009DCB0F5807F9B
:1041D00013D0B0F5806F22D0B0F5006F2ED115E06E
:1041E000A0F54050033800B3B0F5807F26D11FE022
:1041F000534C25E0524C0C3422E0514C18341FE053
:104200004F4C24341CE04E4C303419E04C4C3C34C0
:1042100016E04B4C483413E0494C543410E0484C01
:1042200060340DE0464C6C340AE0454C783407E0CD
:10423000434C843404E0424C903401E0002400BF3D
:1042400000BF40490298884252D13F48407A012835
:1042500009D19DF80F0000F00800082803D10120C3
:104260003749C91E88703848407A022808D19DF81D
:104270000F0000F0080018B901203149C91E8870EC
:104280003148407A052803D02F48407A06280FD1BC
:104290009DF80F0000F00200022805D09DF80F00E5
:1042A00000F00400042803D101202549C91E8870AC
:1042B0002548407A032808D19DF80F0000F002003D
:1042C00018B901201E49C91E88709DF80F0000F022
:1042D0000200022806D11D48C06840F080501B49EA
:1042E000C86005E01948C06820F080501749C860D0
:1042F00001201349C91E48700CB906B010BD0298C0
:10430000000E04F8010B0298000C04F8010B02984F
:10431000000A04F8010B029804F8010B08220DF1C1
:104320000F01204604F096FA00BFE6E70064004063
:1043300000EEFE1800CAFE1800FD0FF3FDD2F0FFDC
:10434000D22C00200005FF188F2D0020E016002041
:104350002DE9FF416FA103C9CDE902016DA103C998
:10436000CDE900016D4890F8E200012806D16C48C3
:10437000808A6A49B1F8E410884205DA6848808D7D
:104380004AF6C001884201DB012000E0002080469F
:10439000B8F1000F07D16348807AAA2803D0624998
:1043A000684600F0C7F85F48007AAA285BD101256B
:1043B0005C488678C478642E03D10120594948723C
:1043C0002DE0652E03D102205649487227E0AA2C21
:1043D00008D10320534948720020544948720AF01A
:1043E00051F81CE0552C0BD105204E494872012094
:1043F0004E49487201221146022004F065F90EE090
:10440000FF2C0BD1062047494872012047494872CA
:1044100001221146022004F057F900E0002515B3EF
:104420000822404902A804F015FA3F4902A800F00A
:1044300081F83F480078401C3D49087008460078E4
:10444000022810DB00200870552C01D0FF2C04D16D
:104450000A21344806F0FEFB03E00B21314806F048
:10446000F9FBFFF771FC2E4890F82600AA2804D02B
:104470002B4890F82600BB2849D10025082102A826
:1044800006F0E8FB264890F82600AA2812D16520FD
:104490008DF80A0055208DF80B0002202349487240
:1044A000072020494872012502221146104604F0D7
:1044B0000BF90BE0AA208DF80B0001250420194907
:1044C000487200201949487209F0DCFFFDB1164915
:1044D00002A800F02FF816480078401C1449087014
:1044E00008460078022812DB00200870FF200C49E3
:1044F00081F82600084601882630401A87B207F561
:10450000CE7188B201220649263108F0DDFCBDE8F3
:10451000FF81000034E7000000000000F0150020DB
:10452000E01600208F2D0020F1FBFB103C1A00202C
:104530007C02002030B585B004460D46019504206C
:104540008DF8080000208DF8090008208DF80A0079
:10455000082221460DF10B0004F07CF9694602485F
:10456000FFF73FFB05B030BD0064004070B500248C
:1045700018E011F8016B80EA062000230EE000F439
:1045800000452DB141F2210585EA4005A8B203E0BE
:104590004FF6FF7505EA40005D1CEBB2082BEEDB21
:1045A000651CACB29442E4DB70BD000070B5ADF5A3
:1045B000007D05460E464FF400720D496846FEF731
:1045C00072F84FF6FF7407E028786040C0B23DF8FB
:1045D000100080EA24246D1C3000A6F101018EB287
:1045E000F2D14FF6FF70444020460DF5007D70BDBE
:1045F000E4E9000810B5022000F00AF9002840D0D4
:10460000022000F045F81F4800681F4989880844C7
:104610001C4908600846C1681B484089084419497C
:10462000C8601A480078401C18490870084600788D
:10463000052826DB00200870124800680521B0FB21
:10464000F1F0104908600846006840F22F11484315
:10465000000B0C490860084600880B49888109480E
:10466000C0680521B0FBF1F00649C8600846C06883
:1046700000EB4000C0F31320C8600846808902495F
:10468000C88110BD840200201017002014000020F3
:1046900000F0805111B10349086001E0024948600F
:1046A00070470000040402400000024021B102688B
:1046B00042F00102026004E002684FF6FE731A4005
:1046C0000260704701684FF6FE72114001600021E0
:1046D000016041608160C1604B49884208D14A490C
:1046E0000839496841F00F01474A083A51608AE0A9
:1046F00045491431884208D143490839496841F095
:10470000F001414A083A51607DE03F492831884232
:1047100008D13D490839496841F470613A4A083A7C
:10472000516070E038493C31884208D13649083937
:10473000496841F47041344A083A516063E03249B3
:104740005031884208D130490839496841F4702114
:104750002D4A083A516056E02B496431884208D10D
:1047600029490839496841F47001274A083A5160DB
:1047700049E025497831884208D1234908394968F8
:1047800041F07061204A083A51603CE01F4988427C
:1047900006D1011F096841F00F01021F116032E0CC
:1047A0001A491431884208D11849091F096841F093
:1047B000F001164A121F116025E014492831884281
:1047C00008D11249091F096841F470610F4A121F8C
:1047D000116018E00D493C31884208D10B49091F8E
:1047E000096841F47041094A121F11600BE0074942
:1047F0005031884207D10549091F096841F47021E9
:10480000024A121F1160704708000240080402406B
:1048100001460020002201F0805313B1054B1A68B5
:1048200001E0054B1A6802EA01030BB1012000E028
:104830000020704700040240000002401AB10368E3
:104840000B43036002E003688B430360704710B5BD
:104850000022026847F6F0739A430C6A8B68234380
:104860000C6923434C6923438C692343CC6923435C
:104870004C6A23438C6A23431A430260CB6843602B
:104880000B6883604B68C36010BD00002DE9FC41DC
:1048900004463FA103C9CDE900012046FEF7E8FB2D
:1048A00003223D49204603F0C3FF064606B16DE0F2
:1048B0003A4890F8270000281CD00020374981F89A
:1048C0002700084601882730401A87B207F5CE71C5
:1048D00088B201223149273108F0F6FA06464EB96E
:1048E00000212FA008F02FFB8046012241462CA07A
:1048F00003F096FE2948C06800F0006070B1E078CF
:1049000060B900216846FEF71DFB2046FEF78EFBCE
:1049100001210DF10300FEF715FB37E01E48433877
:1049200090F8421090F8410001EB002085B21A493E
:10493000433991F8460000EBD0714910164A433ACA
:1049400082F84610104690F8460000EB4000042123
:1049500001EB4000A84207D0104690F8460000EB5B
:10496000400001EB4000C51CE81EC1B20A4805F03A
:104970002FFE2046FEF75AFB0848C06800F0006092
:1049800018B10121E01CFEF7DDFA00BFBDE8FC8193
:10499000173B3B000000000083170020E0160020BA
:1049A000636C656172203320636C6F636B2072658A
:1049B00073657420666C6167206661696C0D0A001E
:1049C0007047000000B58DB00121084605F00AFFD0
:1049D0001948FFF777FE1948029019480390002004
:1049E000049004200590002006908020079040004D
:1049F00008908000099020200A9000020B9000206F
:104A00000C9002A90C48FFF722FF01210A48FFF78A
:104A10004DFE012202210848FFF710FF0B208DF800
:104A2000040004208DF8060001208DF8070001A87D
:104A300003F03EFF0DB000BD080002404C240140D1
:104A40001417002010B51248008812490880124837
:104A500000884FF6FF71081A0E49098808444FF67E
:104A6000FF7190FBF1F201FB120084B2204603F0CB
:104A70005BF8204603F000FE204602F097F920463E
:104A800003F0F6FE034800880349088010BD0000CB
:104A9000101700201C0000201A00002010B54FF451
:104AA000004000F089F818B14FF4004000F06CF8B5
:104AB0004FF4804000F080F818B14FF4804000F0CF
:104AC00063F84FF4005000F077F818B14FF400503D
:104AD00000F05AF84FF4805000F06EF818B14FF41F
:104AE000805000F051F84FF4006000F065F818B104
:104AF0004FF4006000F048F84FF4806000F05CF87C
:104B000018B14FF4806000F03FF810BD10B54FF4BD
:104B1000007000F051F818B14FF4007000F034F854
:104B20004FF4807000F048F888B14FF4807000F0C6
:104B30002BF813480078012809DB1148C07F401C7E
:104B40000F49C877012081F824000020C884802004
:104B500000F032F810B1802000F016F8402000F08C
:104B60002BF810B1402000F00FF8202000F024F8BE
:104B700010B1202000F008F801200249887610BD0D
:104B8000901B0020101700200149086070470000AA
:104B900014040140002006490860091D0860091D31
:104BA0000860091D08600348014914310860704716
:104BB00000040140FFFF0F00014600200022074BC8
:104BC0001B6803EA0102054B14331B680B4013B149
:104BD0000AB1012000E000207047000000040140FD
:104BE000002123498279002A3AD00A4612680368D4
:104BF0009A430B461A600A1D126803689A430B1DFC
:104C00001A60027911440A6803681A430A60184A54
:104C10000832126803689A43154B08331A601A1D4C
:104C2000126803689A43124B0C331A604279102AB7
:104C30000ED11A1F126803681A430D4B08331A600D
:104C40001A1D126803681A43094B0C331A600DE0F1
:104C50000749427911440A6803681A430A6005E06B
:104C6000027911440A6803689A430A607047000099
:104C7000000401400021016001710C2141710021FB
:104C8000817170470EB54FF40030FFF77DFF4FF490
:104C90000030019000208DF8080008208DF80900F0
:104CA00001208DF80A0001A8FFF79AFF2948C06883
:104CB00040F480612748C1604020FFF765FF402035
:104CC000019000208DF8080010208DF809000120C7
:104CD0008DF80A0001A8FFF783FF1E48006940F025
:104CE00001011C4801618015FFF74EFF4FF48070F1
:104CF000019000208DF808000C208DF8090001209B
:104D00008DF80A0001A8FFF76BFF1248006940F018
:104D10003001104801614015FFF736FF4FF4007075
:104D2000019000208DF808000C208DF8090001206A
:104D30008DF80A0001A8FFF753FF17208DF8000037
:104D400006208DF8020001208DF80300684603F06C
:104D5000AFFD0EBD0000014030B5044604254FF400
:104D6000302000F085F80546042D17D10C48006965
:104D700040F002000A49086108464461006940F0B9
:104D8000400008614FF4302000F072F805460448F6
:104D9000006941F6FD71084001490861284630BDAF
:104DA0000020024004200B49C96801F0010109B14B
:104DB00001200EE00749C96801F0040109B1022091
:104DC00007E00449C96801F0100109B1032000E0BF
:104DD00004207047002002400348006940F0800032
:104DE00001490861704700000020024078B506467E
:104DF0000C46042500200090E80200F039F8054632
:104E0000042D24D11348006940F0010011490861C4
:104E10003480E80200F02CF80546042D10D1B01CB7
:104E20000090200C00990880E80200F021F8054667
:104E30000848006941F6FE7108400649086106E02D
:104E40000448006941F6FE7108400249086128469D
:104E500078BD000000200240024803494860034832
:104E6000486070472301674500200240AB89EFCDC1
:104E700000B502460423FFF795FF034603E0FFF762
:104E800091FF0346521E012B01D1002AF7D102B92E
:104E90000523184600BD000010B50B48806A401C71
:104EA000094988620846806A6FF07F41884201D3D1
:104EB00000BFFEE702F0CCFF0448006880F4807079
:104EC0000249086010BD0000101700200C140140BA
:104ED00070B504460026FFF7BFFF04F10060FFF73E
:104EE0003BFF0546FFF778FF042D00D10126304631
:104EF00070BD30B50346002003F1006400BF04E03C
:104F000025780D54641C451CA8B29042F8DB30BDD6
:104F10002DE9F04706460F4690464FF0010A06F18C
:104F200000643D46FFF798FF4FF000090EE0204671
:104F30002968FFF75BFF20682968884202D04FF09C
:104F4000000A05E0241D2D1D09F10409C145EED319
:104F500000BFFFF741FF5046BDE8F0872DE9F84F4D
:104F600081460E464FF0000B4D46002171A007F020
:104F7000EAFF0246294600906EA003F059FC00B9F2
:104F8000D4E000216BA007F0DEFF0544002169A0FA
:104F900007F0D9FF301A86B200240BE00E2C00DB9C
:104FA000C4E0285D3A2800D106E0295D6348015538
:104FB000601CC4B2B442F1DB00BF0D222046611C6C
:104FC000CCB25E490A5400220846611C4254254472
:104FD000301B86B200240CE00E2C00DBA6E0285D1E
:104FE000402800D107E0295D544810300155601C6D
:104FF000C4B2B442F0DB00BF0D222046611CCCB22B
:105000004E4910310A5400220846611C425425447E
:10501000301B86B2E8782E2808D1E8792E2805D1F1
:10502000E87A2E2802D1E87B3A2800D07EE00024DE
:105030001BE0002142480155884611E008EB84003E
:10504000285C00F00F013E48005D00EB800001EBA2
:105050004000C1B23A48015508F1010000F0FF08D4
:10506000B8F1030FEADB601CC4B2042CE1DB10359D
:10507000A6F1100086B22878322805D16878312848
:1050800002D1A8782F2800D050E000202B490C39FD
:1050900081F8CD02152129480C3880F8CE12F01E77
:1050A00086B2ED1C701EC4B20BE0285D2F2806D11D
:1050B000701E001BC7B2281900F1010A03E0601E30
:1050C000C4B2002CF1DC00BF00201C490C3981F86F
:1050D0006C0094B1601C3E2800DB27E0621C29466E
:1050E0001648603003F0B6FB0D2214486030611C96
:1050F00042540022A11C425401E0F7B2AA460FB16B
:105100003E2F00DB12E03A4651460C48203003F0B7
:10511000A1FB0D2109482030C1550022791C4254C1
:105120000C22084903F084FB834600BF5846BDE8C3
:10513000F88F00006674703A2F2F0000BC29002001
:105140007F2C0020C4E900082DE9F0410446002727
:10515000002630E0204600F0BFF90220194981F80E
:10516000AC0022460021084600F0BEFBD4B9012164
:105170000A2000F02BF8134890F8C40000B918E09A
:10518000002111A007F0DFFE80460E48B0F8C830BD
:1051900000F1CA0241460CA007F0E5FEC5B23DB1E0
:1051A00001270AE00121052000F010F8012704E0A2
:1051B00000BF701CC6B2032ECCDB00BF3846BDE872
:1051C000F0810000B0290020323230002DE9F0419A
:1051D00004460D4600271948B0F8028029E0FFF781
:1051E00031FCFFF759FE154846884FF6FF70A0EBDB
:1051F000080030444FF6FF7190FBF1F201FB120002
:10520000C7B2B5B10E480078AA2801D103F0BCFDA1
:105210000C4890F8AE0018B10A4890F8C50038B9AB
:10522000084890F8AE0020B9064890F8C40000B1D4
:1052300001E0A742D3DD00BFBDE8F08110170020D8
:10524000AC020020B029002010B52648806825490E
:10525000B1F8C810084423494968884217D2214947
:10526000B1F8C80000EBD0714910A0EB410151B179
:105270001C48B0F8C800401E1A49A1F8C800012017
:1052800081F8C70003E00020164981F8C7001549DE
:10529000B1F8C820896801F500301249CA31FFF71A
:1052A00037FE04461CB901200E4981F8C6000D489E
:1052B00090F8C70038B10B48B0F8C810CA30405C4D
:1052C000084981F8CA00074880680649B1F8C81043
:1052D000084404498860084682684168002002F05A
:1052E000B5FF10BDB02900202DE9F041054600278B
:1052F000002606E0A84704460CB1012703E0701C15
:10530000C6B2032EF6DB00BF3846BDE8F0810000D0
:1053100070B5C0B00025002000F0DEF800212DA0FF
:1053200007F011FE044622462AA1684603F092FACD
:1053300000212A4807F007FE06460DEB040032461E
:10534000264903F087FA0021244807F0FCFD204499
:10535000C4B2002021492C398860182081F8AC00A3
:1053600000222146684600F0BFFA012000F0B4F8A0
:105370002BE0002019492C3981F8C5000121282093
:10538000FFF724FF15482C3890F8C50000B91DE040
:1053900012482C3890F8C60000B117E00F482C389E
:1053A00080680E492C39496888420ED30B482C3846
:1053B00080680A492C394968884200D301250020B9
:1053C00006492C3981F8C50000E0D2E700BF284625
:1053D00040B070BD5245545220000000DC2900202E
:1053E000F0B5C1B00026002135A007F0ACFD0546A0
:1053F0002A4633A101A803F02DFA0021324807F014
:10540000A2FD074601A948193A462F4903F022FA9E
:1054100000212D4807F097FD2844C5B218202A49DD
:105420002C3981F8AC000022294601A800F05CFA72
:1054300001210A20FFF7CAFE23482C3890F8C40047
:1054400000B939E0002121A007F07DFD07461E4884
:105450002C38B0F8C83000F1CA0239461CA007F059
:1054600082FDC4B23CB3002017492C39486010E0DB
:1054700015489E30005D00F00F0013492C39496833
:1054800001EB810100EB41000F492C394860601CA1
:10549000C4B20D489E30005D0D2805D00A482C3856
:1054A000B0F8C800A042E3DC07482C384068B0F5EB
:1054B000E03F00D8012600BF304641B0F0BD0000FB
:1054C00053495A4520000000DC29002032313300C6
:1054D000323133200000000010B50446DCB1042056
:1054E0001B4981F8D3020221194880F8D412022204
:1054F00000F2D321174803F0ADF9022216491548EE
:10550000801C03F0A7F904221349891C1148001FCD
:1055100003F0A0F91BE004200D4981F8CB02012122
:105520000B4880F8CC12022200F2CB21094803F08C
:1055300091F90222084908390648801C03F08AF9CB
:1055400004220549891F0348001F03F083F910BD99
:10555000B0290020EF1B0020852C00202DE9F04110
:1055600000242021494800F08DFC002211461046FD
:1055700002F06CFE002046490882488208460188F5
:105580001030401A87B207F5CE7188B20222404926
:10559000103107F099FC72B6382600250BE0FFF7B2
:1055A0007BFC4FF4003101EBC520FFF791FC00B903
:1055B00003E0681CC5B2B542F1DB00BF62B6B5427C
:1055C00000D054E00020334981F8C60088600120F3
:1055D0000870002081F8AE00C1F8B400C1F8C00026
:1055E000FFF7B2FD044604B941E02B48FFF77CFE0B
:1055F000044604B93BE02948FFF776FE044604B9A7
:1056000035E02748FFF770FE044604B92FE025482F
:10561000FFF76AFE044604B929E02348FFF764FE59
:10562000044604B923E02148FFF75EFE044604B9AE
:105630001DE00120174981F8AE00002081F8C70065
:105640000120FFF781FD044604B910E0FFF760FE7A
:10565000044604B90BE04FF0AA3015490860886091
:105660000C484068486007F0A7FC044600BF2021B2
:10567000064800F009FC0CB108F076FB00F010F9C8
:105680000020044908702046BDE8F081000C01406C
:10569000E0160020B0290020BD5C0008C15A0008B7
:1056A000115A0008515C0008E1530008615B0008D2
:1056B000E41500202DE9F047054688460026B1464E
:1056C0007548007800B9E4E002227449A81C03F090
:1056D000AFF808B1012607E0022270490839A81C7A
:1056E00003F0A6F800B9D4E0287B8710687B00F0AF
:1056F0003F00694981F8AD006EB1281D08F05AFCE1
:105700006549C1F8B80005F1080008F053FC62498A
:10571000C1F8C0000CE0281D08F04CFC5E49C1F83F
:10572000B00005F1080008F045FC5B49C1F8B40081
:10573000A8EB070084B2584890F8AD0000F00B00C9
:1057400008B9002C2ADDCEB13CB95348D0F8B800D6
:10575000401C5149C1F8B80020E04F48806828B982
:105760004D48D0F8B8004C49C1F8BC004A48D0F8C0
:10577000B80020444849C1F8B8000FE03CB9464899
:10578000D0F8B000401C4449C1F8B00006E04248DF
:10579000D0F8B00020444049C1F8B000002C53DDDF
:1057A0004FF0000A3C4890F8C70030B14FF0010AB2
:1057B000601C3949A1F8C80002E03748A0F8C84089
:1057C000E919354ACA3202EB0A00224603F042F8D0
:1057D000AEB30120304981F8C500084680684968A9
:1057E000884231D22C48D0F8BC0020442A49D1F854
:1057F000B810884217D1B4F5007F08D026488068D9
:10580000204425494968884201D24FF00109B9F185
:10581000000F19D1FFF718FD1F48D0F8B8001E4936
:10582000C1F8BC0010E01C48D0F8BC0020441A4964
:10583000D1F8B810884207D24FF0010904E0FFE721
:105840000120154981F8C400B9F1000F00D020E013
:105850001EB10120FFF740FE02E00020FFF73CFEF2
:1058600010200D4981F8AC0032460021084600F0B6
:105870003BF8002C0CDD26B10120074981F8C5005A
:1058800006E00120044981F8C4000846A0F8C84099
:1058900000BFBDE8F0870000B0290020832C002065
:1058A00010B50120FFF718FE11200E4981F8AC0059
:1058B00001220021084600F017F801210520FFF71A
:1058C00085FC0020FFF708FE1120064981F8AC0096
:1058D00000221146104600F007F801210520FFF7CD
:1058E00075FC10BDB02900202DE9F043C1B0804601
:1058F0000D46914600204449A1F8C80081F8AD004A
:1059000081F8C50081F8C40001AC404890F833002C
:1059100004F8010B3D4890F8340004F8010B3B48B3
:1059200090F8350004F8010B384890F8360004F878
:10593000010BB9F1000F0CD00846D0F8C01020467A
:1059400008F098FD3048D0F8B810201D08F092FDFE
:105950000BE02D48D0F8B410204608F08BFD2A4803
:10596000D0F8B010201D08F085FD0834264890F8C6
:10597000AC00022803D1602004F8010B02E05020A3
:1059800004F8010B204890F8AC0004F8010B082043
:1059900004F8010B002004F8010B04F8010B04F8D3
:1059A000010B04F8010B04F8010B174890F8AC0048
:1059B00002280AD104F8010B042004F8010B02208C
:1059C00004F8010B002004F8010B01A8201A86B28C
:1059D00001A988192A464146FCF720FEA81985B27C
:1059E0000622294601A807F0EBFE074638128DF87B
:1059F0001400F8B28DF815000622294601A802F01D
:105A00005FFA41B0BDE8F083B0290020BC1B002044
:105A1000F0B5C1B000260021254807F094FA00280F
:105A200041DD182022496C3981F8AC00002121A009
:105A300007F089FA044622461EA101A802F00AFFD7
:105A400000211B4807F07FFA074601A908193A46CA
:105A5000174902F0FFFE0021154807F074FA2044B0
:105A6000C4B20022214601A8FFF73EFF0121052014
:105A7000FFF7ACFB0E486C3890F8C40000B914E096
:105A800000210EA007F05FFA074609486C38B0F80D
:105A9000C83000F1CA02394608A007F064FAC5B25E
:105AA00015B1012600E0012600BF304641B0F0BD2F
:105AB0001C2A0020435744200000000032353000EB
:105AC000F0B5C1B00026002121A007F03CFA044641
:105AD00022461FA101A802F0BDFE00211E4807F0CA
:105AE00032FA074601A908193A461B4902F0B2FEEC
:105AF0000021194807F027FA2044C4B2182016499B
:105B00001C3981F8AC000022214601A8FFF7ECFE09
:105B100001210A20FFF75AFB0F481C3890F8C400F7
:105B200000B912E000210DA007F00DFA07460A485F
:105B30001C38B0F8C83000F1CA02394607A007F097
:105B400012FAC5B205B1012600BF304641B0F0BD22
:105B50005041535320000000CC2900203233300044
:105B60002DE9F04100271820344981F8AC000021CC
:105B700033A007F0E8F980460022414630A0FFF745
:105B8000B3FE01210A20FFF721FB2C4890F8C40046
:105B900000B94FE000212CA007F0D5F98046274836
:105BA000B0F8C83000F1CA02414627A007F0DBF97F
:105BB000C4B2002C3DD0042407E02048CA30005D68
:105BC000282800D106E0601CC4B21C48B0F8C80008
:105BD000A042F2DC00BF601CC4B20025002622E017
:105BE0001648CA30005D2C2804D01448CA30005D25
:105BF00029280CD1042D03DB281F14490E5402E080
:105C00001248801C4655681CC5B2002609E00B48A6
:105C1000CA30005D00F00F0006EB860100EB41008A
:105C2000C6B2601CC4B20548B0F8C800A042D7DCB8
:105C3000012700BF3846BDE8F0810000B0290020F0
:105C4000504153560D00000032323700852C0020A1
:105C500070B500251820154981F8AC00002114A06A
:105C600007F071F906460022314611A0FFF73CFE0D
:105C700001210A20FFF7AAFA0C4890F8C40000B9E5
:105C800011E000210CA007F05EF906460748B0F8C5
:105C9000C83000F1CA02314607A007F064F9C4B267
:105CA00004B1012500BF284670BD0000B0290020C6
:105CB0005459504520490D0032303000F0B5C1B084
:105CC0000026002121A007F03EF9044622461FA12C
:105CD00001A802F0BFFD00211E4807F034F9074675
:105CE00001A908193A461B4902F0B4FD00211948E0
:105CF00007F029F92044C4B2182016490C3981F85C
:105D0000AC000022214601A8FFF7EEFD01210A2088
:105D1000FFF75CFA0F480C3890F8C40000B912E0A5
:105D200000210DA007F00FF907460A480C38B0F81B
:105D3000C83000F1CA02394607A007F014F9C5B20D
:105D400005B1012600BF304641B0F0BD5553455264
:105D500020000000BC290020333331002DE9F04140
:105D6000024600250026002000230024002791F889
:105D700003C00CF00F0591F803C00CF0100CBCF13F
:105D8000000F03D091F802C04CEA050591F800C05D
:105D9000BCF1000F31D0146800202BE04FF0010C53
:105DA0000CFA00F3B1F800C00CEA03069E4220D1C1
:105DB00083004FF00F0C0CFA03F7BC4305FA03FC09
:105DC0004CEA040491F803C0BCF1280F06D14FF04F
:105DD000010C0CFA00FCC2F814C00AE091F803C0F0
:105DE000BCF1480F05D14FF0010C0CFA00FCC2F8D1
:105DF00010C0401C0828D1D31460B1F800C0BCF119
:105E0000FF0F34DD546800202EE000F1080C4FF045
:105E1000010808FA0CF3B1F800C00CEA03069E4230
:105E200021D183004FF00F0C0CFA03F7BC4305FAA5
:105E300003FC4CEA040491F803C0BCF1280F05D11F
:105E400000F1080C08FA0CF8C2F8148091F803C0AD
:105E5000BCF1480F07D100F1080C4FF0010808FA17
:105E60000CF8C2F81080401C0828CED35460BDE85E
:105E7000F0810246002093680B400BB1012000E046
:105E80000020704741617047016170470146084832
:105E90000068000E087006480068000C487004484E
:105EA0000088000A887002480078C8700420704793
:105EB000E016002070B505462021054807F043F89C
:105EC000044622460249284602F0C4FC204670BD22
:105ED00042160020F0B5044600225E4F3F8807F5C9
:105EE0008057DFF870C1BCF802C0A7EB0C06F717AB
:105EF00006EB17573F13A6EB0737BAB2564E367864
:105F0000012E17D1002111E0524F7F887E18F7171C
:105F100006EB17573F13A6EB0737DFF840C1DCF855
:105F200008C01CF8077067544E1CB1B29142EBDBFD
:105F300010468CE00020002523E0484EB668454F0F
:105F40007F88F65D7E2E02D1561EB2B21BE0434E14
:105F5000B668404F7F8816F807C02E466F1CBDB24A
:105F600004F806C03B4F7F887E1CF71706EB1757D7
:105F70003F13A6EB0737DFF8DCC0ACF80270561E03
:105F8000B2B2002AD9DC00BF042D01DB28465FE055
:105F9000012115E02F4F7F887E18F71706EB175762
:105FA0003F13A6EB0737DFF8B4C0DCF808C01CF8D5
:105FB00007707E2F00D105E0561EB2B24E1CB1B262
:105FC000002AE7DC00BF234F7F887E18F71706EB17
:105FD00017573F13A6EB0737DFF880C0DCF808C07F
:105FE0001CF807707E2F2ED14E1CB1B2002311E099
:105FF000184F7F88FE18F71706EB17573F13A6EBCD
:106000000737DFF858C0DCF808C01CF80770E75401
:106010005E1CB3B28B42EBDB0E4F7F887E18F71706
:1060200006EB17573F13A6EB0737DFF828C0ACF88D
:1060300002706646768867463F88BE4202D1552682
:10604000064F3E70084610B95526044F3E7000BFFB
:10605000F0BD000016000020901B0020AC020020C4
:1060600038B504460C220B49204602F0F3FB0A48DF
:10607000C0680090094900980840009004226946D1
:1060800004F10C0002F0E6FB04F1100004F061FEE4
:10609000162038BD40170020E016002000073F1FE3
:1060A00070B50546002407480078AA2808D105489D
:1060B000448822468168284602F0CCFB01F052FD5C
:1060C000204670BDA002002070B50646002405E001
:1060D0000A48005D00B903E0601CC4B20C2CF7DB79
:1060E00000BF0C2C01D1002505E0254622460349BE
:1060F000304602F0AFFB284670BD0000D8150020E6
:1061000070B50546002407480078AA2808D105483C
:10611000448822468168284602F09CFB02F0CAFAB5
:10612000204670BD940200200146054890F8D80032
:106130000870034890F8D9004870022070470000AA
:10614000F01500200146034890F8E2000870012095
:1061500070470000F015002001460548B0F8E40043
:1061600000120870024890F8E4004870022070475E
:10617000F015002010B5044604220349204602F021
:1061800069FB042010BD00000116002001460548EF
:10619000B0F8DA0000120870024890F8DA0048708F
:1061A00002207047F01500200146054890F8D600FF
:1061B0000870034890F8D70048700220704700002C
:1061C000F01500200146054890F85000087003487B
:1061D00090F851004870022070470000F015002030
:1061E00010B5044604220349204602F033FB042084
:1061F00010BD00002116002001460548B0F8DC0063
:1062000000120870024890F8DC00487002207047C5
:10621000F015002070B505461021054806F093FEE4
:10622000044622460249284602F014FB204670BD6F
:10623000F015002070B505462021054806F083FEC4
:10624000044622460249284602F004FB204670BD5F
:10625000C4E9000810B5044605220349204602F0AF
:10626000F9FA052010BD0000A216002001460A48D8
:10627000D0F8E800000E08700748D0F8E800000CDD
:1062800048700548B0F8E800000A8870024890F8A5
:10629000E800C87004207047F015002070B506466D
:1062A000002405E00A48005D00B903E0601CC4B2A8
:1062B000142CF7DB00BF142C01D1002505E0254686
:1062C00022460349304602F0C5FA284670BD000058
:1062D000C415002001460A48B0F8DE00001208701C
:1062E000074890F8DE0048700548B0F8E00000125A
:1062F0008870034890F8E000C870042070470000E0
:10630000F015002008B501217D2004F09BFA4FF61E
:10631000FF70ADF8000048208DF8030069468A48F8
:10632000FFF71CFD69468948FFF718FD6946884854
:10633000FFF714FD69468748FFF710FD6946864858
:10634000FFF70CFD0420ADF8000003208DF80200DB
:1063500010208DF8030069467F48FFF7FFFC0820F6
:10636000ADF8000003208DF8020010208DF8030026
:1063700069467948FFF7F2FC4FF48050ADF8000011
:1063800003208DF8020010208DF8030069466F4845
:10639000FFF7E4FC4FF40050ADF8000003208DF847
:1063A000020010208DF8030069466A48FFF7D6FC0A
:1063B0002020ADF8000003208DF8020010208DF899
:1063C000030069466248FFF7C9FC4020ADF80000B1
:1063D00003208DF8020010208DF8030069465C4808
:1063E000FFF7BCFC0220ADF8000003208DF802008E
:1063F00010208DF8030069465448FFF7AFFC4FF4B6
:106400008060ADF8000003208DF8020010208DF8A8
:10641000030069464F48FFF7A1FC4FF48070ADF8C8
:10642000000003208DF8020010208DF8030069465B
:106430004848FFF793FC4FF48070ADF8000003204C
:106440008DF8020010208DF8030069463E48FFF7E2
:1064500085FC1020ADF8000003208DF8020010200C
:106460008DF8030069463A48FFF778FC0820ADF83C
:10647000000003208DF8020010208DF8030069460B
:106480003448FFF76BFC2020ADF8000003208DF8A6
:10649000020010208DF8030069462C48FFF75EFCCF
:1064A0004020ADF8000048208DF8030069462A48D6
:1064B000FFF754FC4FF40070ADF8000048208DF851
:1064C000030069462348FFF749FC4FF40050ADF83C
:1064D000000004208DF8030069461D48FFF73EFCCC
:1064E0004FF48070ADF8000048208DF80300694635
:1064F0001648FFF733FC0120ADF8000004208DF8AA
:10650000030069461448FFF729FC20211048FFF7D3
:10651000BBFC4FF480610F48FFF7B6FC4FF400510D
:106520000C48FFF7B1FC10210948FFF7ABFC4FF412
:1065300080710548FFF7A6FC07F0B0FF2021034853
:10654000FFF7A0FC08BD000000080140000C01405E
:1065500000100140001401400018014030B5C1B0E6
:1065600001206C4981F82800002081F829000220D0
:10657000694B002211460090104600F0DDFA654894
:106580008079022802D163498870BBE0012061490B
:1065900088700220604B002211460090012000F01C
:1065A000CBFA5C48C079022800D1ABE002205A4BFC
:1065B000002211460090032000F0BEFA5548407AB0
:1065C000022804D1554890F8290000B19AE0022031
:1065D000514B002211460090112000F0ADFA02202C
:1065E0004D4B002211460090072000F0A5FA002430
:1065F0000EE00220484B002211460090082000F0D7
:106600009BFA4448807B012800D103E0601CC4B29F
:10661000782CEEDB00BF782C00D173E002203E4BDB
:10662000002211460090122000F086FA02203A4B18
:10663000002211460090092000F07EFA3548C07B08
:10664000022809D1354890F8290020B9344890F83B
:10665000B200FF2800D155E0002416E002202E4BA6
:106660000022114600900A2000F066FA2948007CBA
:10667000012800D10BE00220274B00221146009098
:106680000B2000F059FA601CC4B2322CE6DB00BFCC
:10669000322C00D136E002201F4B00221146009020
:1066A000072000F049FA1E4A52321EA101A8FBF74A
:1066B000E5FDC5B20220184B2A4601A900900D2025
:1066C00000F03AFA1348C07C022800D11AE00720F3
:1066D000164B0022114600900E2000F02DFA0D48B6
:1066E000007D022800D10DE002200A490870002137
:1066F0000848017101200E49C87001210548C17088
:1067000041B030BD00200349087002210148C1702A
:1067100000BFF5E7901B00201E010020E0160020BE
:10672000F0150020222573220D0000002101002019
:10673000BC1B00207FB500251A4A07CA01AB07C35E
:10674000002418E00020009001A850F82410002335
:106750001A46154807F0C0FE0220144B00221146CD
:106760000090104600F0E8F911488079012800D126
:1067700003E0601CC4B2032CE4DB00BF7CB1022048
:106780000A4B00221146009000F0D6F90020034683
:1067900002464FF416410090034807F09DFE28463C
:1067A00004B070BDE4EB0008004800401E0100206A
:1067B000901B00202DE9F04104460D4600270120E2
:1067C0001A4988770846B0F8028026E0FEF764FB95
:1067D000164846884FF6FF70A0EB080030444FF68D
:1067E000FF7190FBF1F201FB1200C7B2FEF72AF92C
:1067F00000F0F8FF0D48C07F08B906F0E9FD0B482E
:1068000090F8200008B901F007FEFDF7A1FB25B1C3
:1068100007480078AA2800D101E0A742D6DD00BFD2
:10682000002002498877BDE8F081000010170020A1
:10683000AC02002038B55D480078C8B95B484078A4
:10684000401C5A49487008464078052801DD07F089
:10685000F9F9002156A006F076FB054601222946EB
:1068600053A001F0DDFE00F0F1F800F007F91DE0A3
:106870004E480078012810D100214C48C17052A028
:1068800006F061FB0546012229464FA001F0C8FE33
:1068900001F07EFAFFF762FE08E044480078022823
:1068A00004D100204149487002F044F94B48807DF2
:1068B00020B101F061F90020484988753B4890F803
:1068C000210018B9394890F8230088B13748C08CA6
:1068D000322801DB01F0B6F90020344981F82400A8
:1068E000C884C87781F8200081F8210081F823004E
:1068F0003A48C07D00284AD006F0ACFF01202B4961
:106900000870084690F8220098B1002081F8220013
:1069100000210120FFF74EFF00210520FFF74AFF6D
:1069200002202F4B002211460090152000F004F9A0
:106930002AE000240FE02B490868002106F003FB41
:10694000054628490868294600F018FAC82001F0D1
:10695000EFFE601CC4B2052CEDDB0220204B0022B0
:1069600011460090104600F0E7F802201C4B002270
:1069700011460090172000F0DFF80C48407F0128F6
:1069800002D000200949087000201449C875134836
:10699000007F40B100210320FFF70CFF00200F49CA
:1069A00008770249087002F0EFF938BD901B00200B
:1069B00047534D206D6F64756C652072657374610B
:1069C00072742E2E2E0D0A0047534D20415420691B
:1069D0006E69742E2E2E0D0A000000001017002084
:1069E0001E0100202C01002070B504460C48008ACE
:1069F00020440B4908820846008AB0F5967F0EDBDA
:106A0000002108A006F09FFA05460122294605A0AC
:106A100001F006FE0020024908820B49087070BD93
:106A2000201C002047505253206E6F207278206344
:106A3000656E74657220646174612072657374613F
:106A400072740D0A00000000901B002010B5002198
:106A5000084804F0FFF800200649891E087000214C
:106A60000448801E817300200349087701F090F9E3
:106A700010BD0000921B00201017002030B5C3B0DD
:106A800026A207CA8DE807004FF480712648FFF759
:106A9000FBF900210320FFF78DFE10212348FFF7AB
:106AA000F1F94FF480712048FFF7ECF90021022042
:106AB000FFF780FE10211D48FFF7E6F900210120B5
:106AC000FFF778FE1A480078AA280DD103A8FFF72F
:106AD00001FAC4B2234603AA0821684606F043FA25
:106AE000C5B2002D00DD0EE04FF480710E48FFF7B7
:106AF000CBF900210120FFF75DFE4FF480710A48B9
:106B0000FFF7C0F900BF00210120FFF753FE01206D
:106B100008490870FFF70EFE43B030BD5359535378
:106B20005441525400000000000801400010014090
:106B3000AC020020901B00202DE9F05FADF5825DD6
:106B400004460E4615461F460DF58050D0F868A045
:106B50004FF00009CB4600213F48015588464EE0E2
:106B600000F052F93D4951F83400002106F0EBF9EC
:106B70003A490E9051F834000E9900F0FFF8002DBC
:106B800003DD2946304600F0F9F8344951F8340065
:106B9000002106F0D8F931490E9051F83400032253
:106BA0000E9901F03DFD002D04DD032229463046FB
:106BB00001F036FD294901EBC40108790121FFF7F5
:106BC000F9FD27480078AA2815D110A8FFF782F907
:106BD0000F90032210A80F9901F022FD10AA514630
:106BE00038460F9B06F0BFF98346BBF1000F02DD6C
:106BF0004FF0010909E008F1010000F0FF08174813
:106C000000EBC40040794045AADC00BF154850F8AD
:106C100024304A4610A80F999847B9F1000F17D1B0
:106C20000E4951F83400002106F08DF90B490E9001
:106C300051F8340001220E9901F0F2FC00210AA063
:106C400006F081F9012201460E9007A001F0E8FC50
:106C50000DF5825DBDE8F09F961B00202C01002001
:106C6000AC020020F40100206578655F6661696C04
:106C70000D0A00007CB5044617A0006801900125AC
:106C80000CB9002515E0012C13D001201349087020
:106C900000210220FFF78EFD022001AB00221146E9
:106CA00000900F20FFF748FF0C48407D012800D0DE
:106CB00000251DB10120094908700BE00748047048
:106CC000002107A006F03FF906460122314604A044
:106CD00001F0A6FC28467CBD4F4B0000901B002015
:106CE000646174612D2D3E6174206D6F6465206652
:106CF00061696C0D0A000000FEB5044616A103C9C7
:106D0000CDE9010101250CB9002512E0012C10D0BC
:106D100000210220FFF74EFD072001AB00221146A3
:106D200000901020FFF708FF0D48807D012800D05B
:106D3000002515B10A4804700CE0002008490870CD
:106D4000002108A006F0FFF806460122314605A002
:106D500001F066FC2846FEBD434F4E4E45435400AD
:106D6000901B002061742D2D3E64617461206D6F55
:106D70006465206661696C0D0A00000070B5054607
:106D80000E4600240CE0295D074807F000FB00BF19
:106D90008021054807F02EFA0028F9D0601C84B243
:106DA000B442F0DB70BD00000048004010B514494B
:106DB0008988002922DD12498988814205DB104932
:106DC0008988091A0E4B998002E000210C4B9980AA
:106DD0000C4B1B8803F580530A4C6488191BCB1796
:106DE00001EB13531B13A1EB03339AB204498988B7
:106DF00021B9002A02DDAA21014B197010BD000043
:106E0000AC020020160000200020044908804880C1
:106E10000349888055200870704700001600002044
:106E2000AC02002010B5C178102903DAC17808310E
:106E3000C17061E0C1780831C170C178182291FB3E
:106E4000F2F302FB1311C1708178491C81708178C3
:106E50001C2951DD41780D294DD2DFE801F04C07A6
:106E600015083609370A0B380C39420000BF00BF3D
:106E700000BF00BF00BF81781F2904DD01218170A0
:106E80004178491C417036E00178CA1701EB9272D3
:106E90009210A1EB82027AB90278642392FBF3F498
:106EA00003FB142242B181781D290DDD012181707F
:106EB0004178491C417007E081781C2904DD0121DB
:106EC00081704178491C417015E000BF00BF00BFD0
:106ED00081781E2904DD012181704178491C4170AF
:106EE00009E081781F2905DD012181704170017859
:106EF000491C017000BF00BF10BD000070B5044602
:106F000001212F48FEF7B5FF002832D000202D497F
:106F100008702D48007820442B4908702B48408D7C
:106F200020442A4948850846408DB0F5167F02DB8B
:106F30004FF4167048852448007878283FDB2348B2
:106F4000C06800F40010002839D12048C06840F41F
:106F500000101E49C860022003F059F900211CA04E
:106F600005F0F1FF05460122294619A001F058FB62
:106F700025E0002014490870124800782044114987
:106F8000087008460078052819DB00200F4948855D
:106F90000846C06800F4001088B10846C06820F4B4
:106FA0000010C860822003F032F900210DA005F026
:106FB000CAFF0546012229460AA001F031FB70BD37
:106FC000001801406302002062020020E016002049
:106FD00067707320616E74206F666620616C6172E9
:106FE0006D0D0A0067707320616E74206F666620F5
:106FF000616C61726D2063616E63656C0D0A0000E7
:107000002DE9FF4F83B082468B4616460024A046EA
:107010005946504600F0FAFF0190019800B9CFE0C0
:10702000002512E01AF805002E2807D004EB840092
:1070300044001AF805003038044404E0ABEB0500C6
:10704000401EC7B203E0681CC5B25D45EADB00BF65
:10705000681CC5B20EB1012E0BD100200290052F85
:1070600001DD052705E0052F03DAC7F10500C0B2F1
:1070700002900EB1012E37D16420B4FBF0F100FB79
:107080001148B4FBF0F444434FF0000911E004EB65
:107090008400440008EB88004FEA40082846691C39
:1070A000CDB21AF800003038804409F1010000F038
:1070B000FF09B945EBDB4FF000090AE004EB84005F
:1070C000440008EB88004FEA400809F1010000F095
:1070D000FF0902988145F1DB08F1050808EB8808F3
:1070E0000320B8FBF0F812E04FF000090DE004EBCC
:1070F000840044002846691CCDB21AF800003038DC
:10710000044409F1010000F0FF09B945EFDB4EB975
:1071100044440A20B4FBF0F42B4884424BD90020AD
:1071200001904DE0012E09D144440A20B4FBF0F453
:10713000264884423FD90020019041E0022E14D11C
:10714000002504E00A20B4FBF0F4681CC5B2BD427F
:10715000F8DB40F23C7044434FF47A70B4FBF0F437
:10716000FF2C28D9002001902AE0032E0ED1002503
:1071700004E00A20B4FBF0F4681CC5B2BD42F8DBA1
:107180006408B42C17D90020019019E0042E0FD107
:10719000002504E00A20B4FBF0F4681CC5B2BD422F
:1071A000F8DB42F20F70844205D90020019007E01D
:1071B0000020019004E0069804600120019000BFC7
:1071C000019807B0BDE8F08F804A5D050095BA0AC6
:1071D0002DE9F04704460D464FF0000900263146E0
:1071E000761C14F8018000BF04E0A05D80EA080866
:1071F000701CC6B2E81EB042F7DC6A1EA15CAA1E73
:10720000A05CFCF707F80746474501D14FF001099C
:107210004846BDE8F0872DE9F04106460C460621B8
:10722000304600F00CFF8046B8F1000F00D12DE091
:10723000002511E016F81500303800EB80004700FB
:10724000012000EB4500305C30383844C7B2C5F14E
:1072500002002754681CC5B2032DEBDB20780E28F2
:107260000EDB207863280BDA60780C2808DC607865
:10727000012805DBA0781F2802DCA078012802DAAB
:107280004FF0000801E04FF0010800BF4046BDE8A4
:10729000F08100002DE9F74FD6B004469146002555
:1072A000002055900AE0605D2C2805D15598411CBE
:1072B000C9B2559152A90D54681CC5B25798854260
:1072C00002DA55980B28EEDB55980B2800D011E216
:1072D000B9F1010F7CD120782C284ED09DF84801BF
:1072E00006284ADB9DF84F01401C205C2C2844D026
:1072F0009DF850019DF84F11401A06283DDB0DF214
:107300004311204600F03CFA4F909DF84F11214464
:10731000481C50A9FFF77FFF82464F9868B3BAF127
:10732000000F2AD050A8FFF77DFD062250A9F34890
:1073300001F090FAF248007E20B10020F049087672
:1073400003F042FD9DF845019DF844119DF843214D
:107350009DF84231CDE90032CDE902109DF841316E
:107360009DF84021E7A105A8FAF788FFC0B2049074
:10737000042205A8049901F053F9B9F1010F20D1B5
:107380009DF84801401C205C41280DD04FF400516D
:10739000E648FEF779FDD9482038C06820F08070B3
:1073A000D6492039C8600CE0D4482038C06840F085
:1073B0008070D2492039C8604FF40051DB48FEF795
:1073C00061FDCE482038C06800F0807008B991E1B6
:1073D0000AE19DF84A019DF84911401A401EC0B2C9
:1073E0004E909DF84C019DF84B11401A401EC0B2C2
:1073F0004D909DF84901401C205C2C287ED04E9871
:1074000000287BDD9DF84B01401C205C2C28F5D02A
:107410004D980028F5DD9DF84A01401C205C4E285F
:1074200005D09DF84A01401C205C532866D19DF888
:107430004C01401C205C452805D09DF84C01401CA7
:10744000205C572877D19DF849112144481C49AB4D
:1074500000224E99FFF7D4FD4F909DF84B11214427
:10746000481C48AB01224D99FFF7CAFD82464F9850
:10747000002860D0BAF1000F5DD09DF84A01401C91
:10748000205C4E2808D19D482038C06840F000702C
:107490009A492039C86007E098482038C06820F031
:1074A000007096492039C8609DF84C01401C205C52
:1074B000452808D191482038C06840F080608F4945
:1074C0002039C86007E08D482038C06820F080600F
:1074D0008A492039C8604998000E95490870499832
:1074E000000C48704998000A88704998C8704898FC
:1074F000000E08714898000C487100E01BE04898A5
:10750000000A88714898C8719DF84C01401C205CA5
:107510004899CDE900109DF84A01401C235C85A1E3
:1075200005A8499AFAF7AAFEC0B20490042205A859
:10753000049901F075F89DF84E019DF84D11401A1F
:10754000401EC0B24C909DF84D01401C205C2C2880
:107550001CD04C98002819DD9DF84D112144481C81
:1075600047AB02224C99FFF74BFD064676B17049B6
:107570004798087273A105A8479AFAF77FFEC0B230
:107580000490042205A8049901F04AF89DF84F01DF
:107590009DF84E11401A401EC0B24B909DF84E010E
:1075A000401C205C2C281ED04B9800281BDD9DF829
:1075B0004E112144481C46AB03224B99FFF720FD96
:1075C0000646002EEFD05A49469848724698420027
:1075D0005FA105A8FAF752FEC0B20490042205A8E4
:1075E000049901F01DF884E0B9F1020FFBD19DF878
:1075F0004E019DF84D11401A401EC7B29DF84D0135
:10760000401C205C2C282FD0002F2DDD022F2BDCDE
:107610009DF84D112144481C394600F010FD0646E6
:107620000EB34FF0000800250CE008EB88004FEA8D
:1076300040089DF84D01401C2844205C30388044AF
:10764000681CC5B2BD42F0DB394981F8168042465C
:1076500043A105A8FAF712FEC0B20490042205A8BF
:10766000049900F0DDFF02E00020314988759DF8A3
:1076700050019DF84F11401A401E00F0FF0B9DF87D
:107680004F01401C205C2C2833D0BBF1000F30DDB3
:1076900000204A9001259DF84F01401C205C2D28B8
:1076A00006D1E8034A900225ABF1010000F0FF0B80
:1076B0009DF84F112144481945AB04225946FFF764
:1076C0009FFC0646AEB145994A98084345904598B7
:1076D000000A174988724598C87226A105A8459ADC
:1076E000FAF7CCFDC0B20490042205A8049900F07A
:1076F00097FF00BF59B0BDE8F08F000000170020D1
:107700001017002025303264C4EA25303264D4C218
:1077100025303264C8D52025303264CAB1253032D4
:1077200064B7D625303264C3EB0900000014014071
:1077300040170020256C64256320256C64256309AF
:1077400000000000CBD9B6C8A3BA253033640900C5
:10775000BABDCFF2A3BA2530336420B6C809000001
:10776000BFC9D3C3CEC0D0C7CAFD3A2025303264CA
:1077700009000000BAA3B0CE3A2025640D0A00002B
:107780002DE9F04106460D460621304600F057FC33
:10779000074607B923E0002412E016F81400303839
:1077A00000EB80004FEA4008012000EB4400305C11
:1077B0003038404400F0FF0805F80480601CC4B273
:1077C000032CEADB2878182805DA68783C2802DAE6
:1077D000A8783C2801DB002700E0012700BF3846DD
:1077E000BDE8F0812DE9F04FC1B04FF000095E48CF
:1077F00040885E4908805E4800884FF6FF71081A8D
:107800005A49098808444FF6FF7190FBF1F201FBD9
:1078100012001FFA80FA01A8FEF742FC0746002F6B
:107820007EDD52480088524908800422394601A86A
:1078300000F0F6FE002400257BE001E0601C84B22D
:1078400001A8005D242801D0BC42F7DBBC4200D176
:1078500071E0002501E0681C85B2601901A9085C8F
:107860000A2802D06019B842F5DB6019B84200D18D
:1078700061E0AA1ED1B201AA2244501CFFF7A8FC65
:107880008046B8F1000F51D001203A49087000211C
:1078900039A005F058FB834601A802192B4659462A
:1078A00035A005F060FB0646002E19DD2A2031497F
:1078B00081F84800681E82B201A801192D4849309C
:1078C00000F0C8FF4FF0010900212A484830415517
:1078D000AA1BD1B201AA224490190122FFF7DAFCB7
:1078E000B9F1000F03D10020224981F84800002E91
:1078F00002DD601984B21CE0002121A005F023FB09
:10790000834601A802192B4659461DA005F02BFB02
:107910000646002E0ADDAA1BD1B201AA224400E0CD
:107920000AE090190222FFF7B5FC04E0601984B266
:1079300000BF032F81DC14E0BAF10A0F11DD1248F9
:10794000C06820F080701049C860012006490876A0
:107950000020084981F848004FF400510B48FEF719
:1079600093FA41B0BDE8F08F1017002020000020EE
:107970001E000020471A0020244750524D432C007F
:107980002447504747412C00E016002000140140D6
:1079900038B504464648007800281ED000204449E7
:1079A0000870444908804448C06800F480100028EA
:1079B00039D04148C06820F480103F49C860832016
:1079C00002F025FC00213DA005F0BDFA054601228C
:1079D00029463AA000F024FE25E0364800882044DD
:1079E0003449088008460088B0F5967F1BDB324892
:1079F000C06800F4801090B92F48C06840F480102F
:107A00002D49C860032002F002FC002134A005F0DB
:107A10009AFA05460122294631A000F001FE4FF4F2
:107A2000967024490880364800782044344908700C
:107A3000204800883C2839DB084600783C2835DBA4
:107A40001C480088B0F5967F30DA1B48C06820F0EB
:107A500080701949C86001202A490876002014491D
:107A600081F84800002128A005F06DFA05460122A2
:107A7000294625A000F0D4FD0020214908704021AE
:107A80002748FEF7FFF9274806F066FB022005F0BD
:107A900063FB0020034602464FF4965100902148B4
:107AA00006F01AFD40211E48FEF7EEF938BD000031
:107AB000471A002066020020E0160020677073203D
:107AC0006D6F64756C6520627265616B646F776E53
:107AD00020616C61726D2063616E63656C0D0A00DC
